:100000000C948D000C94AA000C94AA000C94AA00E5
:100010000C94AA000C94AA000C94AA000C94AA00B8
:100020000C94AA000C94AA000C94AA000C94AA00A8
:100030000C94AA000C94AA000C94AA000C94AA0098
:100040000C94AA000C94AA000C94AA000C94AA0088
:100050000C94AA000C94AA000C94AA000C94AA0078
:100060000C94AA000C94AA00DC01DA01DA01DA018E
:10007000DA01DA01DA01DA01DA01DA01DA01DA01A8
:10008000DA01DA01DA01DA01DA01DA01DA01DA0198
:10009000DA01DA01DA01DA01D801DA01DA01DA018A
:1000A000DA01DA01DA01DA01DC01DA01DA01DA0176
:1000B000DA01DA01DA01DA01D801DA01DA01DA016A
:1000C000DA01DA01DA01DA01DC01DA01DA01DA0156
:1000D000DA01DA01DA01DA01DC01DA01DA01DA0146
:1000E000DA01DA01DA01DA01D801DA01DA01DA013A
:1000F000DA01DA01DA01DA01DC01DA01DA01DA0126
:10010000DA01DA01DA01DA01D801DA01DA01DA0119
:10011000DA01DA01DA01DA01DC0111241FBECFEFC6
:10012000D8E0DEBFCDBF11E0A0E0B1E0E2EBF7E048
:1001300002C005900D92A639B107D9F721E0A6E9D2
:10014000B1E001C01D92AD39B207E1F70E942D0266
:100150000C94D7030C9400001092C50087E680939E
:10016000C400E1ECF0E0808188618083A2ECB0E023
:100170008C9186608C9380818068808308959091B3
:10018000C00095FFFCCF8093C60008950F931F9386
:10019000CF938C01C0E0F801EC0FF11D8081882322
:1001A00021F00E94BF00CF5FF6CFCF911F910F913A
:1001B000089580E090E02091C000222334F0883E32
:1001C00023E0920720F020E003C020E001C021E0FE
:1001D000222331F00196883E23E0920761F703C0A5
:1001E0008091C60008958EE708950E94D9008093FB
:1001F0009C01893721F481E080939B0108958E361C
:1002000011F410929B010895EF92FF920F931F93A8
:10021000CF93DF937C018B01EA0180E191E00E94A2
:10022000C60080E091E00E94C60085E591E00E9452
:10023000C600C7010E94C600C8010E94C600CE01C8
:100240000E94C600DF91CF911F910F91FF90EF9018
:10025000089517B88FEF84B983E085B90E94AC0088
:100260000E949801089585B18E7F85B92FEF83E2B2
:1002700094EF215080409040E1F700C0000085B12C
:10028000816085B910929B01089585B1826085B91E
:10029000089587B1816087B988B18E7F88B92FE7CB
:1002A00088E391E0215080409040E1F700C00000D9
:1002B00088B1816088B920EA2A95F1F787B18E7FED
:1002C00087B9089520E030E0309B0AC02F5F3F4F90
:1002D000293E43E03407C0F321E0FC012083089568
:1002E000309BFECF3099FECFFC0110820895109212
:1002F0009A0120E02830C8F4309BFECF80EA8A952E
:10030000F1F7309B09C0E6E9F1E0848190E0880FC5
:10031000991F8160848305C0E6E9F1E08481880F3C
:1003200084833099FECF2F5FE5CF80919A010895A5
:1003300087B18F7C87B988B18F7C88B91092B9005A
:100340008CE08093B80084E08093BC00089584EA38
:100350008093BC008091BC008823E4F78091B900B1
:10036000887F883011F0803111F480E0089581E0B9
:10037000089584E98093BC008091BC0084FDFCCF8B
:1003800008958093BB0084E88093BC008091BC00FA
:100390008823E4F78091B900E82FE87F8E2F90E062
:1003A0008935910538F4FC01EC5CFF4F0C94810316
:1003B00080E0089582E0089581E0089584EC8093C0
:1003C000BC008091BC008823E4F78091BB000895B5
:1003D000982F92959F70990F292F220F220F920F1D
:1003E0008F70890F0895CF93DF93EC010E94A701CE
:1003F00080ED0E94C10180E00E94C1010E94B9010C
:100400000E94A70181ED0E94C1010E94DE018F7749
:100410000E94E80188830E94DE010E94E80189832E
:100420000E94DE018F730E94E8018A830E94DE0130
:100430000E94E8018B830E94DE010E94E8018C8308
:100440000E94DE010E94E8018D830E94DE010E946D
:10045000E8018E83DF91CF910895CF93DF93CDB7DD
:10046000DEB7CF59D1090FB6F894DEBF0FBECDBFAE
:100470000E94290181E0C156DF4F8883CF59D040C7
:10048000C156DF4F8881CF59D040882341F00E9468
:100490004901CE0181569F4F0E946201F1CF00E0D9
:1004A00010E004301105D4F40E947701F801EA56F7
:1004B000FE4F8083B801660F771F660F771F600FAE
:1004C000711F21E030E02C0F3D1F620F731F4AE0C7
:1004D00090E00E94A2030F5F1F4FE3CF8E010058F0
:1004E0001F4F82E1EBE5F1E0D80101900D928A9572
:1004F000E1F7BE016F5F7F4FC8010E948703F801DB
:1005000001900020E9F731970F2EFEE2EF2EF12C3B
:10051000F02DF182E082BE016A5F7F4FC8010E9428
:100520008703F80101900020E9F7319785E29EE208
:10053000918380838AE090E093838283045211093F
:1005400085E1EDE6F1E0D80101900D928A95E1F7A1
:10055000BE01655F7F4FC8010E948703F8010190CB
:100560000020E9F73197F182E082BE01605F7F4FA2
:10057000C8010E948703D8010D900020E9F7119768
:1005800086E0E2E8F1E001900D928A95E1F7CE0174
:1005900083960E94F30100E010E007301105BCF4DF
:1005A000B801660F771F85E190E08C0F9D1F680FE3
:1005B000791FE3E2F0E0EC0FFD1FE00FF11F8081F7
:1005C0004AE090E00E94A2030F5F1F4FE6CF8E012A
:1005D000065D1F4F8EE0E8E8F1E0D80101900D9232
:1005E0008A95E1F742E050E0BE01635E7F4FC801AB
:1005F0000E949203F80101900020E9F731970F2E35
:10060000FFE2EF2EF12CF02DF182E08242E050E08B
:10061000BE01615E7F4FC8010E949203F801019004
:100620000020E9F73197F182E08242E050E0BE011C
:100630006F5D7F4FC8010E949203F8010190002076
:10064000E9F731978EE290E29183808380E290E037
:100650009383828342E050E0BE01675E7F4FC80112
:100660000E949203F80101900020E9F731970F2EC4
:10067000FAE3EF2EF12CF02DF182E08242E050E01F
:10068000BE01695E7F4FC8010E949203F80101908C
:100690000020E9F73197F182E08242E050E0BE01AC
:1006A0006B5E7F4FC8010E949203F8010190002009
:1006B000E9F731978EE290E0918380830E94F50004
:1006C000319903C080919B0101C081E081110E949A
:1006D00033018DA10E944501AE01465D5F4FBE0111
:1006E000645A7F4FCE0180589F4F0E9404019FEFB4
:1006F0002BE732E9915020403040E1F700C0000084
:10070000B9CEEE0FFF1F0590F491E02D0994FB0187
:10071000DC010D900020E9F7119701900D92002067
:10072000E1F70895FB01DC010D900020E9F7119736
:100730004150504028F0019000200D92C9F70895D3
:100740001C920895BB274A3031F4992322F4BDE26C
:10075000909581959F4F0C94AE03BB27FB015527C5
:10076000AA27880F991FAA1FA41710F0A41B83950E
:100770005051B9F7A05DAA3308F0A95DA193009785
:1007800079F7B111B1931192CB010C94C703DC013D
:10079000FC01672F71917723E1F7329704C07C91B8
:1007A0006D9370836291AE17BF07C8F30895F894F4
:0207B000FFCF79
:1007B200546865205556206C616D70206973200065
:1007C2000A0A426C7565746F6F7468206879677283
:1007D2006F6D6574657220636F6E74726F6C2E201C
:1007E20053656E642027792720746F207475726EAA
:1007F200206F6E2074686520776174657220707551
:100802006D702E0A006F66662E0A005468652068B5
:10081200756D69646974792069733A20005468655A
:100822002074656D70657261747572652069733AC2
:10083200200020B0432E0A0054686520646174656C
:060842002069733A20005A
:00000001FF
